{
  "address": "0xe7f1725E7734CE288F8367e1Bb143E90bb3F0512",
  "abi": [
    {
      "inputs": [
        {
          "internalType": "address",
          "name": "priceFeedaddress",
          "type": "address"
        }
      ],
      "stateMutability": "nonpayable",
      "type": "constructor"
    },
    {
      "inputs": [],
      "name": "Fund_me_NotOwner",
      "type": "error"
    },
    {
      "stateMutability": "payable",
      "type": "fallback"
    },
    {
      "inputs": [],
      "name": "MINIMUM_USD",
      "outputs": [
        {
          "internalType": "uint256",
          "name": "",
          "type": "uint256"
        }
      ],
      "stateMutability": "view",
      "type": "function"
    },
    {
      "inputs": [
        {
          "internalType": "address",
          "name": "",
          "type": "address"
        }
      ],
      "name": "addressToAmountFunded",
      "outputs": [
        {
          "internalType": "uint256",
          "name": "",
          "type": "uint256"
        }
      ],
      "stateMutability": "view",
      "type": "function"
    },
    {
      "inputs": [],
      "name": "fund",
      "outputs": [],
      "stateMutability": "payable",
      "type": "function"
    },
    {
      "inputs": [
        {
          "internalType": "uint256",
          "name": "",
          "type": "uint256"
        }
      ],
      "name": "funders",
      "outputs": [
        {
          "internalType": "address",
          "name": "",
          "type": "address"
        }
      ],
      "stateMutability": "view",
      "type": "function"
    },
    {
      "inputs": [],
      "name": "getowner",
      "outputs": [
        {
          "internalType": "address",
          "name": "",
          "type": "address"
        }
      ],
      "stateMutability": "view",
      "type": "function"
    },
    {
      "inputs": [],
      "name": "i_owner",
      "outputs": [
        {
          "internalType": "address",
          "name": "",
          "type": "address"
        }
      ],
      "stateMutability": "view",
      "type": "function"
    },
    {
      "inputs": [],
      "name": "priceFeed",
      "outputs": [
        {
          "internalType": "contract AggregatorV3Interface",
          "name": "",
          "type": "address"
        }
      ],
      "stateMutability": "view",
      "type": "function"
    },
    {
      "inputs": [],
      "name": "withdraw",
      "outputs": [],
      "stateMutability": "nonpayable",
      "type": "function"
    },
    {
      "stateMutability": "payable",
      "type": "receive"
    }
  ],
  "transactionHash": "0x3bb2d8e668d18823b7a2d62b44c337076de80b09af4d3ac236899fd6c497a501",
  "args": [
    "0x5FbDB2315678afecb367f032d93F642f64180aa3"
  ],
  "numDeployments": 1,
  "solcInputHash": "16e4f196bde189e0cc945f9afab4a908",
  "bytecode": "0x60a060405234801561001057600080fd5b506040516200104c3803806200104c83398181016040528101906100349190610115565b3373ffffffffffffffffffffffffffffffffffffffff1660808173ffffffffffffffffffffffffffffffffffffffff1660601b8152505080600260006101000a81548173ffffffffffffffffffffffffffffffffffffffff021916908373ffffffffffffffffffffffffffffffffffffffff16021790555050610142565b600080fd5b600073ffffffffffffffffffffffffffffffffffffffff82169050919050565b60006100e2826100b7565b9050919050565b6100f2816100d7565b81146100fd57600080fd5b50565b60008151905061010f816100e9565b92915050565b60006020828403121561012b5761012a6100b2565b5b600061013984828501610100565b91505092915050565b60805160601c610edd6200016f6000396000818161031b015281816105a6015261060b0152610edd6000f3fe60806040526004361061007f5760003560e01c8063b60d42881161004e578063b60d428814610142578063dba6335f1461014c578063dc0d3dff14610177578063fe0174bd146101b45761008e565b80633ccfd60b146100985780633e47d6f3146100af5780636b69a592146100ec578063741bef1a146101175761008e565b3661008e5761008c6101df565b005b6100966101df565b005b3480156100a457600080fd5b506100ad610319565b005b3480156100bb57600080fd5b506100d660048036038101906100d19190610815565b610559565b6040516100e3919061085b565b60405180910390f35b3480156100f857600080fd5b50610101610571565b60405161010e919061085b565b60405180910390f35b34801561012357600080fd5b5061012c61057e565b60405161013991906108d5565b60405180910390f35b61014a6101df565b005b34801561015857600080fd5b506101616105a4565b60405161016e91906108ff565b60405180910390f35b34801561018357600080fd5b5061019e60048036038101906101999190610946565b6105c8565b6040516101ab91906108ff565b60405180910390f35b3480156101c057600080fd5b506101c9610607565b6040516101d691906108ff565b60405180910390f35b6802b5e3af16b188000061021e600260009054906101000a900473ffffffffffffffffffffffffffffffffffffffff163461062f90919063ffffffff16565b101561025f576040517f08c379a0000000000000000000000000000000000000000000000000000000008152600401610256906109d0565b60405180910390fd5b346000803373ffffffffffffffffffffffffffffffffffffffff1673ffffffffffffffffffffffffffffffffffffffff16815260200190815260200160002060008282546102ad9190610a1f565b925050819055506001339080600181540180825580915050600190039060005260206000200160009091909190916101000a81548173ffffffffffffffffffffffffffffffffffffffff021916908373ffffffffffffffffffffffffffffffffffffffff160217905550565b7f000000000000000000000000000000000000000000000000000000000000000073ffffffffffffffffffffffffffffffffffffffff163373ffffffffffffffffffffffffffffffffffffffff161461039e576040517f4e14943100000000000000000000000000000000000000000000000000000000815260040160405180910390fd5b60005b600180549050811015610449576000600182815481106103c4576103c3610a75565b5b9060005260206000200160009054906101000a900473ffffffffffffffffffffffffffffffffffffffff16905060008060008373ffffffffffffffffffffffffffffffffffffffff1673ffffffffffffffffffffffffffffffffffffffff1681526020019081526020016000208190555050808061044190610aa4565b9150506103a1565b50600067ffffffffffffffff81111561046557610464610aed565b5b6040519080825280602002602001820160405280156104935781602001602082028036833780820191505090505b50600190805190602001906104a992919061070b565b5060003373ffffffffffffffffffffffffffffffffffffffff16476040516104d090610b4d565b60006040518083038185875af1925050503d806000811461050d576040519150601f19603f3d011682016040523d82523d6000602084013e610512565b606091505b5050905080610556576040517f08c379a000000000000000000000000000000000000000000000000000000000815260040161054d90610bae565b60405180910390fd5b50565b60006020528060005260406000206000915090505481565b6802b5e3af16b188000081565b600260009054906101000a900473ffffffffffffffffffffffffffffffffffffffff1681565b7f000000000000000000000000000000000000000000000000000000000000000081565b600181815481106105d857600080fd5b906000526020600020016000915054906101000a900473ffffffffffffffffffffffffffffffffffffffff1681565b60007f0000000000000000000000000000000000000000000000000000000000000000905090565b60008061063b8361066b565b90506000670de0b6b3a764000085836106549190610bce565b61065e9190610c57565b9050809250505092915050565b6000808273ffffffffffffffffffffffffffffffffffffffff1663feaf968c6040518163ffffffff1660e01b815260040160a06040518083038186803b1580156106b457600080fd5b505afa1580156106c8573d6000803e3d6000fd5b505050506040513d601f19601f820116820180604052508101906106ec9190610d15565b5050509150506402540be400816107039190610d90565b915050919050565b828054828255906000526020600020908101928215610784579160200282015b828111156107835782518260006101000a81548173ffffffffffffffffffffffffffffffffffffffff021916908373ffffffffffffffffffffffffffffffffffffffff1602179055509160200191906001019061072b565b5b5090506107919190610795565b5090565b5b808211156107ae576000816000905550600101610796565b5090565b600080fd5b600073ffffffffffffffffffffffffffffffffffffffff82169050919050565b60006107e2826107b7565b9050919050565b6107f2816107d7565b81146107fd57600080fd5b50565b60008135905061080f816107e9565b92915050565b60006020828403121561082b5761082a6107b2565b5b600061083984828501610800565b91505092915050565b6000819050919050565b61085581610842565b82525050565b6000602082019050610870600083018461084c565b92915050565b6000819050919050565b600061089b610896610891846107b7565b610876565b6107b7565b9050919050565b60006108ad82610880565b9050919050565b60006108bf826108a2565b9050919050565b6108cf816108b4565b82525050565b60006020820190506108ea60008301846108c6565b92915050565b6108f9816107d7565b82525050565b600060208201905061091460008301846108f0565b92915050565b61092381610842565b811461092e57600080fd5b50565b6000813590506109408161091a565b92915050565b60006020828403121561095c5761095b6107b2565b5b600061096a84828501610931565b91505092915050565b600082825260208201905092915050565b7f596f75206e65656420746f207370656e64206d6f726520455448210000000000600082015250565b60006109ba601b83610973565b91506109c582610984565b602082019050919050565b600060208201905081810360008301526109e9816109ad565b9050919050565b7f4e487b7100000000000000000000000000000000000000000000000000000000600052601160045260246000fd5b6000610a2a82610842565b9150610a3583610842565b9250827fffffffffffffffffffffffffffffffffffffffffffffffffffffffffffffffff03821115610a6a57610a696109f0565b5b828201905092915050565b7f4e487b7100000000000000000000000000000000000000000000000000000000600052603260045260246000fd5b6000610aaf82610842565b91507fffffffffffffffffffffffffffffffffffffffffffffffffffffffffffffffff821415610ae257610ae16109f0565b5b600182019050919050565b7f4e487b7100000000000000000000000000000000000000000000000000000000600052604160045260246000fd5b600081905092915050565b50565b6000610b37600083610b1c565b9150610b4282610b27565b600082019050919050565b6000610b5882610b2a565b9150819050919050565b7f43616c6c206661696c6564000000000000000000000000000000000000000000600082015250565b6000610b98600b83610973565b9150610ba382610b62565b602082019050919050565b60006020820190508181036000830152610bc781610b8b565b9050919050565b6000610bd982610842565b9150610be483610842565b9250817fffffffffffffffffffffffffffffffffffffffffffffffffffffffffffffffff0483118215151615610c1d57610c1c6109f0565b5b828202905092915050565b7f4e487b7100000000000000000000000000000000000000000000000000000000600052601260045260246000fd5b6000610c6282610842565b9150610c6d83610842565b925082610c7d57610c7c610c28565b5b828204905092915050565b600069ffffffffffffffffffff82169050919050565b610ca781610c88565b8114610cb257600080fd5b50565b600081519050610cc481610c9e565b92915050565b6000819050919050565b610cdd81610cca565b8114610ce857600080fd5b50565b600081519050610cfa81610cd4565b92915050565b600081519050610d0f8161091a565b92915050565b600080600080600060a08688031215610d3157610d306107b2565b5b6000610d3f88828901610cb5565b9550506020610d5088828901610ceb565b9450506040610d6188828901610d00565b9350506060610d7288828901610d00565b9250506080610d8388828901610cb5565b9150509295509295909350565b6000610d9b82610cca565b9150610da683610cca565b9250827f7fffffffffffffffffffffffffffffffffffffffffffffffffffffffffffffff0482116000841360008413161615610de557610de46109f0565b5b817f80000000000000000000000000000000000000000000000000000000000000000583126000841260008413161615610e2257610e216109f0565b5b827f80000000000000000000000000000000000000000000000000000000000000000582126000841360008412161615610e5f57610e5e6109f0565b5b827f7fffffffffffffffffffffffffffffffffffffffffffffffffffffffffffffff0582126000841260008412161615610e9c57610e9b6109f0565b5b82820290509291505056fea26469706673582212201c9e7f654ef52174a928c87fdb9b945db6efe118130dc291b3376e86e4a0da6f64736f6c63430008080033",
  "devdoc": {
    "kind": "dev",
    "methods": {},
    "version": 1
  },
  "userdoc": {
    "kind": "user",
    "methods": {},
    "version": 1
  },
  "storageLayout": {
    "storage": [
      {
        "astId": 58,
        "contract": "contracts/Fundme.sol:FundMe",
        "label": "addressToAmountFunded",
        "offset": 0,
        "slot": "0",
        "type": "t_mapping(t_address,t_uint256)"
      },
      {
        "astId": 61,
        "contract": "contracts/Fundme.sol:FundMe",
        "label": "funders",
        "offset": 0,
        "slot": "1",
        "type": "t_array(t_address)dyn_storage"
      },
      {
        "astId": 73,
        "contract": "contracts/Fundme.sol:FundMe",
        "label": "priceFeed",
        "offset": 0,
        "slot": "2",
        "type": "t_contract(AggregatorV3Interface)45"
      }
    ],
    "types": {
      "t_address": {
        "encoding": "inplace",
        "label": "address",
        "numberOfBytes": "20"
      },
      "t_array(t_address)dyn_storage": {
        "base": "t_address",
        "encoding": "dynamic_array",
        "label": "address[]",
        "numberOfBytes": "32"
      },
      "t_contract(AggregatorV3Interface)45": {
        "encoding": "inplace",
        "label": "contract AggregatorV3Interface",
        "numberOfBytes": "20"
      },
      "t_mapping(t_address,t_uint256)": {
        "encoding": "mapping",
        "key": "t_address",
        "label": "mapping(address => uint256)",
        "numberOfBytes": "32",
        "value": "t_uint256"
      },
      "t_uint256": {
        "encoding": "inplace",
        "label": "uint256",
        "numberOfBytes": "32"
      }
    }
  }
}